{
  "contractName": "Auction",
  "abi": [
    {
      "inputs": [],
      "stateMutability": "nonpayable",
      "type": "constructor"
    },
    {
      "inputs": [],
      "name": "putBid",
      "outputs": [],
      "stateMutability": "payable",
      "type": "function",
      "payable": true
    },
    {
      "inputs": [
        {
          "internalType": "address",
          "name": "_address",
          "type": "address"
        }
      ],
      "name": "getBiddersBid",
      "outputs": [
        {
          "internalType": "uint256",
          "name": "",
          "type": "uint256"
        }
      ],
      "stateMutability": "view",
      "type": "function",
      "constant": true
    },
    {
      "inputs": [],
      "name": "highestBid",
      "outputs": [
        {
          "internalType": "uint256",
          "name": "",
          "type": "uint256"
        }
      ],
      "stateMutability": "view",
      "type": "function",
      "constant": true
    },
    {
      "inputs": [],
      "name": "highestBidderAddressFunc",
      "outputs": [
        {
          "internalType": "address",
          "name": "",
          "type": "address"
        }
      ],
      "stateMutability": "view",
      "type": "function",
      "constant": true
    },
    {
      "inputs": [
        {
          "internalType": "uint256",
          "name": "_endTime",
          "type": "uint256"
        }
      ],
      "name": "putEndTime",
      "outputs": [],
      "stateMutability": "nonpayable",
      "type": "function"
    },
    {
      "inputs": [],
      "name": "endAuction",
      "outputs": [],
      "stateMutability": "nonpayable",
      "type": "function"
    },
    {
      "inputs": [
        {
          "internalType": "address payable",
          "name": "_address",
          "type": "address"
        }
      ],
      "name": "withdrawBid",
      "outputs": [],
      "stateMutability": "nonpayable",
      "type": "function"
    }
  ],
  "bytecode": "0x6080604052426003556000600560006101000a81548160ff02191690831515021790555034801561002f57600080fd5b5033600560016101000a81548173ffffffffffffffffffffffffffffffffffffffff021916908373ffffffffffffffffffffffffffffffffffffffff160217905550610908806100806000396000f3fe6080604052600436106100705760003560e01c806382d9f1281161004e57806382d9f12814610104578063d57bde791461012f578063f5cc772a1461015a578063fe67a54b1461016457610070565b8063058f4629146100755780634ede3648146100b25780637f6a9d50146100db575b600080fd5b34801561008157600080fd5b5061009c600480360381019061009791906105a5565b61017b565b6040516100a991906105eb565b60405180910390f35b3480156100be57600080fd5b506100d960048036038101906100d49190610644565b6101c3565b005b3480156100e757600080fd5b5061010260048036038101906100fd919061069d565b610293565b005b34801561011057600080fd5b5061011961029d565b60405161012691906106d9565b60405180910390f35b34801561013b57600080fd5b506101446102c7565b60405161015191906105eb565b60405180910390f35b6101626102d1565b005b34801561017057600080fd5b506101796104cf565b005b60008060008373ffffffffffffffffffffffffffffffffffffffff1673ffffffffffffffffffffffffffffffffffffffff168152602001908152602001600020549050919050565b60008060008373ffffffffffffffffffffffffffffffffffffffff1673ffffffffffffffffffffffffffffffffffffffff168152602001908152602001600020541115610290578073ffffffffffffffffffffffffffffffffffffffff166108fc6000808473ffffffffffffffffffffffffffffffffffffffff1673ffffffffffffffffffffffffffffffffffffffff168152602001908152602001600020549081150290604051600060405180830381858888f1935050505015801561028e573d6000803e3d6000fd5b505b50565b8060048190555050565b6000600260009054906101000a900473ffffffffffffffffffffffffffffffffffffffff16905090565b6000600154905090565b6000346000803373ffffffffffffffffffffffffffffffffffffffff1673ffffffffffffffffffffffffffffffffffffffff1681526020019081526020016000205461031d9190610723565b905060011515600560009054906101000a900460ff16151514610375576040517f08c379a000000000000000000000000000000000000000000000000000000000815260040161036c906107b4565b60405180910390fd5b6004544211156103ba576040517f08c379a00000000000000000000000000000000000000000000000000000000081526004016103b1906107b4565b60405180910390fd5b600034116103fd576040517f08c379a00000000000000000000000000000000000000000000000000000000081526004016103f490610820565b60405180910390fd5b6001543411610441576040517f08c379a0000000000000000000000000000000000000000000000000000000008152600401610438906108b2565b60405180910390fd5b806000803373ffffffffffffffffffffffffffffffffffffffff1673ffffffffffffffffffffffffffffffffffffffff168152602001908152602001600020819055508060018190555033600260006101000a81548173ffffffffffffffffffffffffffffffffffffffff021916908373ffffffffffffffffffffffffffffffffffffffff16021790555050565b600560019054906101000a900473ffffffffffffffffffffffffffffffffffffffff1673ffffffffffffffffffffffffffffffffffffffff163373ffffffffffffffffffffffffffffffffffffffff1603610540576001600560006101000a81548160ff0219169083151502179055505b565b600080fd5b600073ffffffffffffffffffffffffffffffffffffffff82169050919050565b600061057282610547565b9050919050565b61058281610567565b811461058d57600080fd5b50565b60008135905061059f81610579565b92915050565b6000602082840312156105bb576105ba610542565b5b60006105c984828501610590565b91505092915050565b6000819050919050565b6105e5816105d2565b82525050565b600060208201905061060060008301846105dc565b92915050565b600061061182610547565b9050919050565b61062181610606565b811461062c57600080fd5b50565b60008135905061063e81610618565b92915050565b60006020828403121561065a57610659610542565b5b60006106688482850161062f565b91505092915050565b61067a816105d2565b811461068557600080fd5b50565b60008135905061069781610671565b92915050565b6000602082840312156106b3576106b2610542565b5b60006106c184828501610688565b91505092915050565b6106d381610567565b82525050565b60006020820190506106ee60008301846106ca565b92915050565b7f4e487b7100000000000000000000000000000000000000000000000000000000600052601160045260246000fd5b600061072e826105d2565b9150610739836105d2565b9250828201905080821115610751576107506106f4565b5b92915050565b600082825260208201905092915050565b7f41756374696f6e20697320656e64656400000000000000000000000000000000600082015250565b600061079e601083610757565b91506107a982610768565b602082019050919050565b600060208201905081810360008301526107cd81610791565b9050919050565b7f42696420616d6f756e742063616e206e6f74206265207a65726f000000000000600082015250565b600061080a601a83610757565b9150610815826107d4565b602082019050919050565b60006020820190508181036000830152610839816107fd565b9050919050565b7f4269642073686f756c6420626520686967686572207468616e2068696768657360008201527f7420626964000000000000000000000000000000000000000000000000000000602082015250565b600061089c602583610757565b91506108a782610840565b604082019050919050565b600060208201905081810360008301526108cb8161088f565b905091905056fea2646970667358221220027cfe803c9c2a3b39f00e66360943cb11b1b3d655c26490f622d8ac2e14340964736f6c63430008110033",
  "immutableReferences": {},
  "source": "// SPDX-License-Identifier: GPL-3.0\n\npragma solidity >=0.7.0 <0.9.0;\n\ncontract Auction {\n    mapping(address => uint) biddersData;\n    uint highestBidAmount;\n    address highestBidAddressVar;\n    uint startTime = block.timestamp;\n    uint endTime;\n    bool auctionEnded = false;\n    address owner;\n\n    constructor() {\n        owner = msg.sender;\n    }\n\n    // put new bid\n    function putBid() public payable {\n        // map update mishe va age user khast mablaghi ezafe kone bayad be meghdari ke alan tooye map hast ezafe beshe\n        uint calculateAmount = biddersData[msg.sender] + msg.value;\n\n        // check if auction session not ended\n        require(auctionEnded == true, \"Auction is ended\");\n        require(block.timestamp <= endTime, \"Auction is ended\");\n\n        // verify value is not zero\n        require(msg.value > 0, \"Bid amount can not be zero\");\n\n        // check if bid is higesr than highest bid\n        require(msg.value > highestBidAmount, \"Bid should be higher than highest bid\");\n\n        // update user bid in biddersData map\n        biddersData[msg.sender] = calculateAmount;\n\n        // update highest bid amount & highest bidder address\n        highestBidAmount = calculateAmount;\n        highestBidAddressVar = msg.sender;\n    }\n\n    // get contract balance (just for testing)\n    function getBiddersBid(address _address) public view returns(uint) {\n        return biddersData[_address];\n    }\n\n    // get highest bid amount\n    function highestBid() public view returns(uint) {\n        return highestBidAmount;\n    }\n\n    // highest bidder address\n    function highestBidderAddressFunc() public view returns(address) {\n        return highestBidAddressVar;\n    }\n\n    // upt end time\n    function putEndTime(uint _endTime) public {\n        endTime = _endTime;\n    }\n\n    // close auction\n    function endAuction() public {\n        if (msg.sender == owner) {\n            auctionEnded = true;\n        }\n    }\n\n    // withdraw bid\n    function withdrawBid(address payable _address) public {\n        // check if _address exists in our data\n        if (biddersData[_address] > 0) {\n            _address.transfer(biddersData[_address]);\n        }\n    }\n}",
  "sourcePath": "/home/mine/Workspace/edu/blockchain/auction-test/contracts/Auction.sol",
  "compiler": {
    "name": "solc",
    "version": "0.8.17+commit.8df45f5f.Emscripten.clang"
  },
  "schemaVersion": "3.4.10",
  "updatedAt": "2022-10-06T01:56:24.769Z",
  "networkType": "ethereum",
  "devdoc": {
    "kind": "dev",
    "methods": {},
    "version": 1
  },
  "userdoc": {
    "kind": "user",
    "methods": {},
    "version": 1
  }
}